{
  "_format": "hh-sol-artifact-1",
  "contractName": "SupplyChain",
  "sourceName": "contracts/Token.sol",
  "abi": [
    {
      "inputs": [],
      "stateMutability": "nonpayable",
      "type": "constructor"
    },
    {
      "inputs": [
        {
          "internalType": "uint256",
          "name": "batchID",
          "type": "uint256"
        },
        {
          "internalType": "string",
          "name": "batchType",
          "type": "string"
        },
        {
          "internalType": "string",
          "name": "description",
          "type": "string"
        },
        {
          "internalType": "uint256",
          "name": "price",
          "type": "uint256"
        }
      ],
      "name": "addBatch",
      "outputs": [],
      "stateMutability": "nonpayable",
      "type": "function"
    },
    {
      "inputs": [
        {
          "internalType": "address",
          "name": "provider",
          "type": "address"
        }
      ],
      "name": "authorizeProvider",
      "outputs": [],
      "stateMutability": "nonpayable",
      "type": "function"
    },
    {
      "inputs": [
        {
          "internalType": "uint256",
          "name": "batchID",
          "type": "uint256"
        }
      ],
      "name": "fetchBatch",
      "outputs": [
        {
          "internalType": "uint256",
          "name": "",
          "type": "uint256"
        },
        {
          "internalType": "string",
          "name": "",
          "type": "string"
        },
        {
          "internalType": "string",
          "name": "",
          "type": "string"
        },
        {
          "internalType": "uint256",
          "name": "",
          "type": "uint256"
        },
        {
          "internalType": "string",
          "name": "",
          "type": "string"
        }
      ],
      "stateMutability": "view",
      "type": "function"
    },
    {
      "inputs": [],
      "name": "getAllBatches",
      "outputs": [
        {
          "components": [
            {
              "internalType": "uint256",
              "name": "batchID",
              "type": "uint256"
            },
            {
              "internalType": "string",
              "name": "batchType",
              "type": "string"
            },
            {
              "internalType": "string",
              "name": "description",
              "type": "string"
            },
            {
              "internalType": "uint256",
              "name": "price",
              "type": "uint256"
            },
            {
              "internalType": "string",
              "name": "status",
              "type": "string"
            }
          ],
          "internalType": "struct SupplyChain.Batch[]",
          "name": "",
          "type": "tuple[]"
        }
      ],
      "stateMutability": "view",
      "type": "function"
    },
    {
      "inputs": [],
      "name": "getOwner",
      "outputs": [
        {
          "internalType": "address",
          "name": "",
          "type": "address"
        }
      ],
      "stateMutability": "view",
      "type": "function"
    },
    {
      "inputs": [
        {
          "internalType": "uint256",
          "name": "batchID",
          "type": "uint256"
        },
        {
          "internalType": "string",
          "name": "newStatus",
          "type": "string"
        }
      ],
      "name": "updateBatchStatus",
      "outputs": [],
      "stateMutability": "nonpayable",
      "type": "function"
    }
  ],
  "bytecode": "0x6080604052348015600f57600080fd5b50336000806101000a81548173ffffffffffffffffffffffffffffffffffffffff021916908373ffffffffffffffffffffffffffffffffffffffff16021790555061193f8061005f6000396000f3fe608060405234801561001057600080fd5b50600436106100625760003560e01c8063112ea262146100675780632a178c5614610083578063589c1eac1461009f578063893d20e8146100bb578063ce614157146100d9578063e80e076b1461010d575b600080fd5b610081600480360381019061007c9190610b64565b61012b565b005b61009d60048036038101906100989190610d0d565b610214565b005b6100b960048036038101906100b49190610dac565b610356565b005b6100c3610417565b6040516100d09190610e17565b60405180910390f35b6100f360048036038101906100ee9190610e32565b610440565b604051610104959493929190610eed565b60405180910390f35b6101156106bb565b60405161012291906110f4565b60405180910390f35b60008054906101000a900473ffffffffffffffffffffffffffffffffffffffff1673ffffffffffffffffffffffffffffffffffffffff163373ffffffffffffffffffffffffffffffffffffffff16146101b9576040517f08c379a00000000000000000000000000000000000000000000000000000000081526004016101b090611188565b60405180910390fd5b6001600260008373ffffffffffffffffffffffffffffffffffffffff1673ffffffffffffffffffffffffffffffffffffffff16815260200190815260200160002060006101000a81548160ff02191690831515021790555050565b600060016000868152602001908152602001600020600001541461026d576040517f08c379a0000000000000000000000000000000000000000000000000000000008152600401610264906111f4565b60405180910390fd5b6040518060a0016040528085815260200184815260200183815260200182815260200161029942610963565b6040516020016102a9919061129c565b604051602081830303815290604052815250600160008681526020019081526020016000206000820151816000015560208201518160010190816102ed91906114ca565b50604082015181600201908161030391906114ca565b5060608201518160030155608082015181600401908161032391906114ca565b50905050600384908060018154018082558091505060019003906000526020600020016000909190919091505550505050565b60006001600084815260200190815260200160002060000154036103af576040517f08c379a00000000000000000000000000000000000000000000000000000000081526004016103a6906115e8565b60405180910390fd5b60016000838152602001908152602001600020600401816103cf42610963565b6040516020016103e193929190611723565b60405160208183030381529060405260016000848152602001908152602001600020600401908161041291906114ca565b505050565b60008060009054906101000a900473ffffffffffffffffffffffffffffffffffffffff16905090565b60006060806000606060006001600088815260200190815260200160002060000154036104a2576040517f08c379a0000000000000000000000000000000000000000000000000000000008152600401610499906115e8565b60405180910390fd5b6000600160008881526020019081526020016000206040518060a0016040529081600082015481526020016001820180546104dc906112ed565b80601f0160208091040260200160405190810160405280929190818152602001828054610508906112ed565b80156105555780601f1061052a57610100808354040283529160200191610555565b820191906000526020600020905b81548152906001019060200180831161053857829003601f168201915b5050505050815260200160028201805461056e906112ed565b80601f016020809104026020016040519081016040528092919081815260200182805461059a906112ed565b80156105e75780601f106105bc576101008083540402835291602001916105e7565b820191906000526020600020905b8154815290600101906020018083116105ca57829003601f168201915b505050505081526020016003820154815260200160048201805461060a906112ed565b80601f0160208091040260200160405190810160405280929190818152602001828054610636906112ed565b80156106835780601f1061065857610100808354040283529160200191610683565b820191906000526020600020905b81548152906001019060200180831161066657829003601f168201915b505050505081525050905080600001518160200151826040015183606001518460800151955095509550955095505091939590929450565b6060600060038054905067ffffffffffffffff8111156106de576106dd610be2565b5b60405190808252806020026020018201604052801561071757816020015b610704610ac3565b8152602001906001900390816106fc5790505b50905060005b60038054905081101561095b5760016000600383815481106107425761074161176a565b5b906000526020600020015481526020019081526020016000206040518060a001604052908160008201548152602001600182018054610780906112ed565b80601f01602080910402602001604051908101604052809291908181526020018280546107ac906112ed565b80156107f95780601f106107ce576101008083540402835291602001916107f9565b820191906000526020600020905b8154815290600101906020018083116107dc57829003601f168201915b50505050508152602001600282018054610812906112ed565b80601f016020809104026020016040519081016040528092919081815260200182805461083e906112ed565b801561088b5780601f106108605761010080835404028352916020019161088b565b820191906000526020600020905b81548152906001019060200180831161086e57829003601f168201915b50505050508152602001600382015481526020016004820180546108ae906112ed565b80601f01602080910402602001604051908101604052809291908181526020018280546108da906112ed565b80156109275780601f106108fc57610100808354040283529160200191610927565b820191906000526020600020905b81548152906001019060200180831161090a57829003601f168201915b5050505050815250508282815181106109435761094261176a565b5b6020026020010181905250808060010191505061071d565b508091505090565b6060600082036109aa576040518060400160405280600181526020017f30000000000000000000000000000000000000000000000000000000000000008152509050610abe565b600082905060005b600082146109dc5780806109c5906117c8565b915050600a826109d5919061183f565b91506109b2565b60008167ffffffffffffffff8111156109f8576109f7610be2565b5b6040519080825280601f01601f191660200182016040528015610a2a5781602001600182028036833780820191505090505b5090505b60008514610ab757600182610a439190611870565b9150600a85610a5291906118a4565b6030610a5e91906118d5565b60f81b818381518110610a7457610a7361176a565b5b60200101907effffffffffffffffffffffffffffffffffffffffffffffffffffffffffffff1916908160001a905350600a85610ab0919061183f565b9450610a2e565b8093505050505b919050565b6040518060a0016040528060008152602001606081526020016060815260200160008152602001606081525090565b6000604051905090565b600080fd5b600080fd5b600073ffffffffffffffffffffffffffffffffffffffff82169050919050565b6000610b3182610b06565b9050919050565b610b4181610b26565b8114610b4c57600080fd5b50565b600081359050610b5e81610b38565b92915050565b600060208284031215610b7a57610b79610afc565b5b6000610b8884828501610b4f565b91505092915050565b6000819050919050565b610ba481610b91565b8114610baf57600080fd5b50565b600081359050610bc181610b9b565b92915050565b600080fd5b600080fd5b6000601f19601f8301169050919050565b7f4e487b7100000000000000000000000000000000000000000000000000000000600052604160045260246000fd5b610c1a82610bd1565b810181811067ffffffffffffffff82111715610c3957610c38610be2565b5b80604052505050565b6000610c4c610af2565b9050610c588282610c11565b919050565b600067ffffffffffffffff821115610c7857610c77610be2565b5b610c8182610bd1565b9050602081019050919050565b82818337600083830152505050565b6000610cb0610cab84610c5d565b610c42565b905082815260208101848484011115610ccc57610ccb610bcc565b5b610cd7848285610c8e565b509392505050565b600082601f830112610cf457610cf3610bc7565b5b8135610d04848260208601610c9d565b91505092915050565b60008060008060808587031215610d2757610d26610afc565b5b6000610d3587828801610bb2565b945050602085013567ffffffffffffffff811115610d5657610d55610b01565b5b610d6287828801610cdf565b935050604085013567ffffffffffffffff811115610d8357610d82610b01565b5b610d8f87828801610cdf565b9250506060610da087828801610bb2565b91505092959194509250565b60008060408385031215610dc357610dc2610afc565b5b6000610dd185828601610bb2565b925050602083013567ffffffffffffffff811115610df257610df1610b01565b5b610dfe85828601610cdf565b9150509250929050565b610e1181610b26565b82525050565b6000602082019050610e2c6000830184610e08565b92915050565b600060208284031215610e4857610e47610afc565b5b6000610e5684828501610bb2565b91505092915050565b610e6881610b91565b82525050565b600081519050919050565b600082825260208201905092915050565b60005b83811015610ea8578082015181840152602081019050610e8d565b60008484015250505050565b6000610ebf82610e6e565b610ec98185610e79565b9350610ed9818560208601610e8a565b610ee281610bd1565b840191505092915050565b600060a082019050610f026000830188610e5f565b8181036020830152610f148187610eb4565b90508181036040830152610f288186610eb4565b9050610f376060830185610e5f565b8181036080830152610f498184610eb4565b90509695505050505050565b600081519050919050565b600082825260208201905092915050565b6000819050602082019050919050565b610f8a81610b91565b82525050565b600082825260208201905092915050565b6000610fac82610e6e565b610fb68185610f90565b9350610fc6818560208601610e8a565b610fcf81610bd1565b840191505092915050565b600060a083016000830151610ff26000860182610f81565b506020830151848203602086015261100a8282610fa1565b915050604083015184820360408601526110248282610fa1565b91505060608301516110396060860182610f81565b50608083015184820360808601526110518282610fa1565b9150508091505092915050565b600061106a8383610fda565b905092915050565b6000602082019050919050565b600061108a82610f55565b6110948185610f60565b9350836020820285016110a685610f71565b8060005b858110156110e257848403895281516110c3858261105e565b94506110ce83611072565b925060208a019950506001810190506110aa565b50829750879550505050505092915050565b6000602082019050818103600083015261110e818461107f565b905092915050565b7f4f6e6c79206f776e65722063616e20706572666f726d20746869732066756e6360008201527f74696f6e00000000000000000000000000000000000000000000000000000000602082015250565b6000611172602483610e79565b915061117d82611116565b604082019050919050565b600060208201905081810360008301526111a181611165565b9050919050565b7f426174636820616c726561647920657869737473000000000000000000000000600082015250565b60006111de601483610e79565b91506111e9826111a8565b602082019050919050565b6000602082019050818103600083015261120d816111d1565b9050919050565b600081905092915050565b7f736f757263696e67202d20000000000000000000000000000000000000000000600082015250565b6000611255600b83611214565b91506112608261121f565b600b82019050919050565b600061127682610e6e565b6112808185611214565b9350611290818560208601610e8a565b80840191505092915050565b60006112a782611248565b91506112b3828461126b565b915081905092915050565b7f4e487b7100000000000000000000000000000000000000000000000000000000600052602260045260246000fd5b6000600282049050600182168061130557607f821691505b602082108103611318576113176112be565b5b50919050565b60008190508160005260206000209050919050565b60006020601f8301049050919050565b600082821b905092915050565b6000600883026113807fffffffffffffffffffffffffffffffffffffffffffffffffffffffffffffffff82611343565b61138a8683611343565b95508019841693508086168417925050509392505050565b6000819050919050565b60006113c76113c26113bd84610b91565b6113a2565b610b91565b9050919050565b6000819050919050565b6113e1836113ac565b6113f56113ed826113ce565b848454611350565b825550505050565b600090565b61140a6113fd565b6114158184846113d8565b505050565b5b818110156114395761142e600082611402565b60018101905061141b565b5050565b601f82111561147e5761144f8161131e565b61145884611333565b81016020851015611467578190505b61147b61147385611333565b83018261141a565b50505b505050565b600082821c905092915050565b60006114a160001984600802611483565b1980831691505092915050565b60006114ba8383611490565b9150826002028217905092915050565b6114d382610e6e565b67ffffffffffffffff8111156114ec576114eb610be2565b5b6114f682546112ed565b61150182828561143d565b600060209050601f8311600181146115345760008415611522578287015190505b61152c85826114ae565b865550611594565b601f1984166115428661131e565b60005b8281101561156a57848901518255600182019150602085019450602081019050611545565b868310156115875784890151611583601f891682611490565b8355505b6001600288020188555050505b505050505050565b7f4261746368206e6f7420666f756e640000000000000000000000000000000000600082015250565b60006115d2600f83610e79565b91506115dd8261159c565b602082019050919050565b60006020820190508181036000830152611601816115c5565b9050919050565b60008154611615816112ed565b61161f8186611214565b9450600182166000811461163a576001811461164f57611682565b60ff1983168652811515820286019350611682565b6116588561131e565b60005b8381101561167a5781548189015260018201915060208101905061165b565b838801955050505b50505092915050565b7f202d3e2000000000000000000000000000000000000000000000000000000000600082015250565b60006116c1600483611214565b91506116cc8261168b565b600482019050919050565b7f202d200000000000000000000000000000000000000000000000000000000000600082015250565b600061170d600383611214565b9150611718826116d7565b600382019050919050565b600061172f8286611608565b915061173a826116b4565b9150611746828561126b565b915061175182611700565b915061175d828461126b565b9150819050949350505050565b7f4e487b7100000000000000000000000000000000000000000000000000000000600052603260045260246000fd5b7f4e487b7100000000000000000000000000000000000000000000000000000000600052601160045260246000fd5b60006117d382610b91565b91507fffffffffffffffffffffffffffffffffffffffffffffffffffffffffffffffff820361180557611804611799565b5b600182019050919050565b7f4e487b7100000000000000000000000000000000000000000000000000000000600052601260045260246000fd5b600061184a82610b91565b915061185583610b91565b92508261186557611864611810565b5b828204905092915050565b600061187b82610b91565b915061188683610b91565b925082820390508181111561189e5761189d611799565b5b92915050565b60006118af82610b91565b91506118ba83610b91565b9250826118ca576118c9611810565b5b828206905092915050565b60006118e082610b91565b91506118eb83610b91565b925082820190508082111561190357611902611799565b5b9291505056fea2646970667358221220b5925d847ecc85bcda707d3c4d8db4e4470ab62294c29146b606639f8580b70064736f6c634300081b0033",
  "linkReferences": {},
  "deployedLinkReferences": {}
}